{
  "_format": "hh-sol-artifact-1",
  "contractName": "Donation",
  "sourceName": "contracts/Donation.sol",
  "abi": [
    {
      "inputs": [],
      "stateMutability": "payable",
      "type": "constructor"
    },
    {
      "anonymous": false,
      "inputs": [
        {
          "indexed": false,
          "internalType": "uint256",
          "name": "id",
          "type": "uint256"
        },
        {
          "indexed": false,
          "internalType": "string",
          "name": "username",
          "type": "string"
        },
        {
          "indexed": false,
          "internalType": "address payable",
          "name": "walletAddress",
          "type": "address"
        },
        {
          "indexed": false,
          "internalType": "string",
          "name": "ipfsHash",
          "type": "string"
        },
        {
          "indexed": false,
          "internalType": "string",
          "name": "userbio",
          "type": "string"
        },
        {
          "indexed": false,
          "internalType": "uint256",
          "name": "donationsReceived",
          "type": "uint256"
        },
        {
          "indexed": false,
          "internalType": "string",
          "name": "networkOption",
          "type": "string"
        },
        {
          "indexed": false,
          "internalType": "string",
          "name": "_phoneContact",
          "type": "string"
        },
        {
          "indexed": false,
          "internalType": "uint256",
          "name": "supporters",
          "type": "uint256"
        }
      ],
      "name": "CreatorEvent",
      "type": "event"
    },
    {
      "anonymous": false,
      "inputs": [
        {
          "indexed": true,
          "internalType": "address",
          "name": "from",
          "type": "address"
        },
        {
          "indexed": false,
          "internalType": "uint256",
          "name": "timestamp",
          "type": "uint256"
        },
        {
          "indexed": false,
          "internalType": "string",
          "name": "message",
          "type": "string"
        }
      ],
      "name": "SupporterEvent",
      "type": "event"
    },
    {
      "inputs": [],
      "name": "contractBal",
      "outputs": [
        {
          "internalType": "uint256",
          "name": "",
          "type": "uint256"
        }
      ],
      "stateMutability": "view",
      "type": "function"
    },
    {
      "inputs": [],
      "name": "contractOwnerWithdraw",
      "outputs": [],
      "stateMutability": "nonpayable",
      "type": "function"
    },
    {
      "inputs": [],
      "name": "creatorCounter",
      "outputs": [
        {
          "internalType": "uint256",
          "name": "",
          "type": "uint256"
        }
      ],
      "stateMutability": "view",
      "type": "function"
    },
    {
      "inputs": [
        {
          "internalType": "uint256",
          "name": "index",
          "type": "uint256"
        },
        {
          "internalType": "uint256",
          "name": "amount",
          "type": "uint256"
        }
      ],
      "name": "creatorWithdrawTip",
      "outputs": [
        {
          "internalType": "address payable",
          "name": "_creatorAddress",
          "type": "address"
        }
      ],
      "stateMutability": "nonpayable",
      "type": "function"
    },
    {
      "inputs": [
        {
          "internalType": "uint256",
          "name": "index",
          "type": "uint256"
        }
      ],
      "name": "getCreatorBal",
      "outputs": [
        {
          "internalType": "uint256",
          "name": "",
          "type": "uint256"
        }
      ],
      "stateMutability": "view",
      "type": "function"
    },
    {
      "inputs": [],
      "name": "getCreatorCount",
      "outputs": [
        {
          "internalType": "uint256",
          "name": "",
          "type": "uint256"
        }
      ],
      "stateMutability": "view",
      "type": "function"
    },
    {
      "inputs": [
        {
          "internalType": "uint256",
          "name": "index",
          "type": "uint256"
        }
      ],
      "name": "getCreatorInfo",
      "outputs": [
        {
          "internalType": "uint256",
          "name": "id",
          "type": "uint256"
        },
        {
          "internalType": "string",
          "name": "",
          "type": "string"
        },
        {
          "internalType": "string",
          "name": "",
          "type": "string"
        },
        {
          "internalType": "address",
          "name": "",
          "type": "address"
        },
        {
          "internalType": "string",
          "name": "",
          "type": "string"
        },
        {
          "internalType": "uint256",
          "name": "",
          "type": "uint256"
        },
        {
          "internalType": "string",
          "name": "",
          "type": "string"
        },
        {
          "internalType": "string",
          "name": "",
          "type": "string"
        },
        {
          "internalType": "uint256",
          "name": "",
          "type": "uint256"
        }
      ],
      "stateMutability": "view",
      "type": "function"
    },
    {
      "inputs": [],
      "name": "getCreatorList",
      "outputs": [
        {
          "components": [
            {
              "internalType": "uint256",
              "name": "id",
              "type": "uint256"
            },
            {
              "internalType": "string",
              "name": "username",
              "type": "string"
            },
            {
              "internalType": "string",
              "name": "ipfsHash",
              "type": "string"
            },
            {
              "internalType": "address payable",
              "name": "walletAddress",
              "type": "address"
            },
            {
              "internalType": "string",
              "name": "userbio",
              "type": "string"
            },
            {
              "internalType": "uint256",
              "name": "donationsReceived",
              "type": "uint256"
            },
            {
              "internalType": "string",
              "name": "networkOption",
              "type": "string"
            },
            {
              "internalType": "string",
              "name": "phoneContact",
              "type": "string"
            },
            {
              "internalType": "uint256",
              "name": "supporters",
              "type": "uint256"
            }
          ],
          "internalType": "struct Donation.CreatorInfo[]",
          "name": "",
          "type": "tuple[]"
        }
      ],
      "stateMutability": "view",
      "type": "function"
    },
    {
      "inputs": [
        {
          "internalType": "uint256",
          "name": "_index",
          "type": "uint256"
        }
      ],
      "name": "getCreatorObj",
      "outputs": [
        {
          "components": [
            {
              "internalType": "uint256",
              "name": "id",
              "type": "uint256"
            },
            {
              "internalType": "string",
              "name": "username",
              "type": "string"
            },
            {
              "internalType": "string",
              "name": "ipfsHash",
              "type": "string"
            },
            {
              "internalType": "address payable",
              "name": "walletAddress",
              "type": "address"
            },
            {
              "internalType": "string",
              "name": "userbio",
              "type": "string"
            },
            {
              "internalType": "uint256",
              "name": "donationsReceived",
              "type": "uint256"
            },
            {
              "internalType": "string",
              "name": "networkOption",
              "type": "string"
            },
            {
              "internalType": "string",
              "name": "phoneContact",
              "type": "string"
            },
            {
              "internalType": "uint256",
              "name": "supporters",
              "type": "uint256"
            }
          ],
          "internalType": "struct Donation.CreatorInfo",
          "name": "",
          "type": "tuple"
        }
      ],
      "stateMutability": "view",
      "type": "function"
    },
    {
      "inputs": [
        {
          "internalType": "uint256",
          "name": "index",
          "type": "uint256"
        }
      ],
      "name": "getSupportInfo",
      "outputs": [
        {
          "internalType": "address",
          "name": "_from",
          "type": "address"
        },
        {
          "internalType": "uint256",
          "name": "_timestamp",
          "type": "uint256"
        },
        {
          "internalType": "string",
          "name": "_message",
          "type": "string"
        }
      ],
      "stateMutability": "view",
      "type": "function"
    },
    {
      "inputs": [],
      "name": "getSupporterList",
      "outputs": [
        {
          "components": [
            {
              "internalType": "address",
              "name": "from",
              "type": "address"
            },
            {
              "internalType": "uint256",
              "name": "timestamp",
              "type": "uint256"
            },
            {
              "internalType": "string",
              "name": "message",
              "type": "string"
            }
          ],
          "internalType": "struct Donation.Supporter[]",
          "name": "",
          "type": "tuple[]"
        }
      ],
      "stateMutability": "view",
      "type": "function"
    },
    {
      "inputs": [
        {
          "internalType": "uint256",
          "name": "_index",
          "type": "uint256"
        }
      ],
      "name": "getSupporterObj",
      "outputs": [
        {
          "components": [
            {
              "internalType": "address",
              "name": "from",
              "type": "address"
            },
            {
              "internalType": "uint256",
              "name": "timestamp",
              "type": "uint256"
            },
            {
              "internalType": "string",
              "name": "message",
              "type": "string"
            }
          ],
          "internalType": "struct Donation.Supporter",
          "name": "",
          "type": "tuple"
        }
      ],
      "stateMutability": "view",
      "type": "function"
    },
    {
      "inputs": [],
      "name": "getSupporters",
      "outputs": [
        {
          "internalType": "uint256",
          "name": "",
          "type": "uint256"
        }
      ],
      "stateMutability": "view",
      "type": "function"
    },
    {
      "inputs": [],
      "name": "owner",
      "outputs": [
        {
          "internalType": "address payable",
          "name": "",
          "type": "address"
        }
      ],
      "stateMutability": "view",
      "type": "function"
    },
    {
      "inputs": [
        {
          "internalType": "string",
          "name": "_message",
          "type": "string"
        },
        {
          "internalType": "uint256",
          "name": "_index",
          "type": "uint256"
        }
      ],
      "name": "sendTip",
      "outputs": [],
      "stateMutability": "payable",
      "type": "function"
    },
    {
      "inputs": [
        {
          "internalType": "string",
          "name": "_message",
          "type": "string"
        },
        {
          "internalType": "uint256",
          "name": "_index",
          "type": "uint256"
        },
        {
          "internalType": "uint256",
          "name": "_amount",
          "type": "uint256"
        },
        {
          "internalType": "address",
          "name": "_tokenAddress",
          "type": "address"
        }
      ],
      "name": "sendTipERC20",
      "outputs": [],
      "stateMutability": "payable",
      "type": "function"
    },
    {
      "inputs": [
        {
          "internalType": "string",
          "name": "_username",
          "type": "string"
        },
        {
          "internalType": "string",
          "name": "_ipfsHash",
          "type": "string"
        },
        {
          "internalType": "string",
          "name": "_userbio",
          "type": "string"
        },
        {
          "internalType": "string",
          "name": "_phoneContact",
          "type": "string"
        },
        {
          "internalType": "string",
          "name": "_networkOption",
          "type": "string"
        }
      ],
      "name": "setCreatorDetail",
      "outputs": [],
      "stateMutability": "nonpayable",
      "type": "function"
    }
  ],
  "bytecode": "0x60806040526001600055600380546001600160a01b031916331790556125088061002a6000396000f3fe6080604052600436106100fe5760003560e01c8063a3701e2611610095578063c9cd30a011610064578063c9cd30a0146102c1578063d9088afc146102d4578063db9020eb146102e9578063dfe6712e1461030b578063e0a57eb81461032057600080fd5b8063a3701e2614610256578063c43ad48114610276578063c580ec0a1461028c578063c92d72311461029f57600080fd5b806343020b1a116100d157806343020b1a146101b25780634af498a2146101d1578063746614a8146101fe5780638da5cb5b1461023657600080fd5b806305860bdc146101035780632516f8e6146101395780633985d5001461016e578063405850361461019d575b600080fd5b34801561010f57600080fd5b5061012361011e366004611d05565b610340565b6040516101309190611da7565b60405180910390f35b34801561014557600080fd5b50610159610154366004611d05565b61045a565b60405161013099989796959493929190611dc1565b34801561017a57600080fd5b5061018e610189366004611d05565b6107a5565b60405161013093929190611e58565b6101b06101ab366004611f2b565b61088a565b005b3480156101be57600080fd5b506007545b604051908152602001610130565b3480156101dd57600080fd5b506101f16101ec366004611d05565b610c14565b604051610130919061205e565b34801561020a57600080fd5b5061021e610219366004612071565b610faf565b6040516001600160a01b039091168152602001610130565b34801561024257600080fd5b5060035461021e906001600160a01b031681565b34801561026257600080fd5b506101b0610271366004612093565b611145565b34801561028257600080fd5b506101c360025481565b6101b061029a366004612165565b6114a2565b3480156102ab57600080fd5b506102b4611766565b60405161013091906121aa565b3480156102cd57600080fd5b50476101c3565b3480156102e057600080fd5b506101b0611ad5565b3480156102f557600080fd5b506102fe611b73565b604051610130919061220c565b34801561031757600080fd5b506008546101c3565b34801561032c57600080fd5b506101c361033b366004611d05565b611c7b565b604080516060808201835260008083526020830152918101919091526007828154811061036f5761036f612261565b90600052602060002090600302016040518060600160405290816000820160009054906101000a90046001600160a01b03166001600160a01b03166001600160a01b03168152602001600182015481526020016002820180546103d190612277565b80601f01602080910402602001604051908101604052809291908181526020018280546103fd90612277565b801561044a5780601f1061041f5761010080835404028352916020019161044a565b820191906000526020600020905b81548152906001019060200180831161042d57829003601f168201915b5050505050815250509050919050565b600060608060006060600060608060008060088b8154811061047e5761047e612261565b90600052602060002090600902019050806000015481600101826002018360030160009054906101000a90046001600160a01b0316846004018560050154866006018760070188600801548780546104d590612277565b80601f016020809104026020016040519081016040528092919081815260200182805461050190612277565b801561054e5780601f106105235761010080835404028352916020019161054e565b820191906000526020600020905b81548152906001019060200180831161053157829003601f168201915b5050505050975086805461056190612277565b80601f016020809104026020016040519081016040528092919081815260200182805461058d90612277565b80156105da5780601f106105af576101008083540402835291602001916105da565b820191906000526020600020905b8154815290600101906020018083116105bd57829003601f168201915b505050505096508480546105ed90612277565b80601f016020809104026020016040519081016040528092919081815260200182805461061990612277565b80156106665780601f1061063b57610100808354040283529160200191610666565b820191906000526020600020905b81548152906001019060200180831161064957829003601f168201915b5050505050945082805461067990612277565b80601f01602080910402602001604051908101604052809291908181526020018280546106a590612277565b80156106f25780601f106106c7576101008083540402835291602001916106f2565b820191906000526020600020905b8154815290600101906020018083116106d557829003601f168201915b5050505050925081805461070590612277565b80601f016020809104026020016040519081016040528092919081815260200182805461073190612277565b801561077e5780601f106107535761010080835404028352916020019161077e565b820191906000526020600020905b81548152906001019060200180831161076157829003601f168201915b50505050509150995099509950995099509950995099509950509193959799909294969850565b60008060606000600785815481106107bf576107bf612261565b906000526020600020906003020190508060000160009054906101000a90046001600160a01b03168160010154826002018080546107fc90612277565b80601f016020809104026020016040519081016040528092919081815260200182805461082890612277565b80156108755780601f1061084a57610100808354040283529160200191610875565b820191906000526020600020905b81548152906001019060200180831161085857829003601f168201915b50505050509050935093509350509193909250565b610892611cac565b60008190506000600885815481106108ac576108ac612261565b60009182526020909120600360099092020101546001600160a01b031690508361090e5760405162461bcd60e51b815260206004820152600e60248201526d125b9d985b1a5908185b5bdd5b9d60921b60448201526064015b60405180910390fd5b33318411156109565760405162461bcd60e51b8152602060048201526014602482015273496e73756666696369656e742062616c616e636560601b6044820152606401610905565b6040516323b872dd60e01b81523360048201526001600160a01b038281166024830152604482018690528316906323b872dd906064016020604051808303816000875af11580156109ab573d6000803e3d6000fd5b505050506040513d601f19601f820116820180604052508101906109cf91906122b1565b506000816001600160a01b03163460405160006040518083038185875af1925050503d8060008114610a1d576040519150601f19603f3d011682016040523d82523d6000602084013e610a22565b606091505b5050905080610a435760405162461bcd60e51b8152600401610905906122d3565b8460088781548110610a5757610a57612261565b90600052602060002090600902016005016000828254610a779190612317565b90915550506008805487908110610a9057610a90612261565b60009182526020909120600990910201600301546001600160a01b03163314610aee57600160088781548110610ac857610ac8612261565b90600052602060002090600902016008016000828254610ae89190612317565b90915550505b6040805160608101825233815242602082019081529181018981526007805460018101825560009190915282517fa66cc928b5edb82af9bd49922954155ab7b0942694bea4ce44661d9a8736c688600390920291820180546001600160a01b0319166001600160a01b0390921691909117815593517fa66cc928b5edb82af9bd49922954155ab7b0942694bea4ce44661d9a8736c68982015590519192917fa66cc928b5edb82af9bd49922954155ab7b0942694bea4ce44661d9a8736c68a90910190610bbb9082612379565b505050336001600160a01b03167fd6a897edbe2f5bae63386e323f717069a8974221d9297299ac544cace2d0f9924289604051610bf9929190612439565b60405180910390a2505050610c0e6001600055565b50505050565b610c6c60405180610120016040528060008152602001606081526020016060815260200160006001600160a01b0316815260200160608152602001600081526020016060815260200160608152602001600081525090565b60088281548110610c7f57610c7f612261565b90600052602060002090600902016040518061012001604052908160008201548152602001600182018054610cb390612277565b80601f0160208091040260200160405190810160405280929190818152602001828054610cdf90612277565b8015610d2c5780601f10610d0157610100808354040283529160200191610d2c565b820191906000526020600020905b815481529060010190602001808311610d0f57829003601f168201915b50505050508152602001600282018054610d4590612277565b80601f0160208091040260200160405190810160405280929190818152602001828054610d7190612277565b8015610dbe5780601f10610d9357610100808354040283529160200191610dbe565b820191906000526020600020905b815481529060010190602001808311610da157829003601f168201915b505050918352505060038201546001600160a01b03166020820152600482018054604090920191610dee90612277565b80601f0160208091040260200160405190810160405280929190818152602001828054610e1a90612277565b8015610e675780601f10610e3c57610100808354040283529160200191610e67565b820191906000526020600020905b815481529060010190602001808311610e4a57829003601f168201915b5050505050815260200160058201548152602001600682018054610e8a90612277565b80601f0160208091040260200160405190810160405280929190818152602001828054610eb690612277565b8015610f035780601f10610ed857610100808354040283529160200191610f03565b820191906000526020600020905b815481529060010190602001808311610ee657829003601f168201915b50505050508152602001600782018054610f1c90612277565b80601f0160208091040260200160405190810160405280929190818152602001828054610f4890612277565b8015610f955780601f10610f6a57610100808354040283529160200191610f95565b820191906000526020600020905b815481529060010190602001808311610f7857829003601f168201915b505050505081526020016008820154815250509050919050565b60008060088481548110610fc557610fc5612261565b60009182526020909120600990910201600581015460038201546008805493945091926001600160a01b039091169186918890811061100657611006612261565b906000526020600020906009020160050160008282546110269190612452565b90915550508185111561106e5760405162461bcd60e51b815260206004820152601060248201526f125b9cdd59999a58da595b9d0818985b60821b6044820152606401610905565b336001600160a01b038216146110c65760405162461bcd60e51b815260206004820152601760248201527f596f7520617265206e6f74207468652063726561746f720000000000000000006044820152606401610905565b6000816001600160a01b03168660405160006040518083038185875af1925050503d8060008114611113576040519150601f19603f3d011682016040523d82523d6000602084013e611118565b606091505b50509050806111395760405162461bcd60e51b8152600401610905906122d3565b50925050505b92915050565b600085511161115357600080fd5b600084511161116157600080fd5b600083511161116f57600080fd5b33600090815260046020526040812054819060ff16156111c95760405162461bcd60e51b81526020600482015260156024820152741059191c995cdcc8185b1c9958591e48195e1a5cdd605a1b6044820152606401610905565b6005876040516111d99190612465565b9081526040519081900360200190205460ff16156112325760405162461bcd60e51b8152602060048201526016602482015275155cd95c9b985b5948185b1c9958591e48195e1a5cdd60521b6044820152606401610905565b6006846040516112429190612465565b9081526040519081900360200190205460ff16156112a25760405162461bcd60e51b815260206004820152601b60248201527f50686f6e6520636f6e7461637420616c726561647920657869737400000000006044820152606401610905565b6112b0600180546001019055565b60086040518061012001604052806112c760015490565b815260208082018b9052604082018a90523360608301526080820189905260a0820186905260c0820187905260e0820188905261010090910184905282546001818101855560009485529382902083516009909202019081559082015191929091908201906113369082612379565b506040820151600282019061134b9082612379565b5060608201516003820180546001600160a01b0319166001600160a01b03909216919091179055608082015160048201906113869082612379565b5060a0820151600582015560c082015160068201906113a59082612379565b5060e082015160078201906113ba9082612379565b5061010091909101516008909101553360009081526004602052604090819020805460ff1916600190811790915590516005906113f8908a90612465565b908152604051908190036020018120805492151560ff199093169290921790915560019060069061142a908790612465565b908152604051908190036020019020805491151560ff199092169190911790557f8daf8016753d1ac9f046faea1d9ef107e8528431f0ce8e7aec2a74df2a5f13f661147460015490565b8833898987898b8960405161149199989796959493929190612481565b60405180910390a150505050505050565b6114aa611cac565b600034116114eb5760405162461bcd60e51b815260206004820152600e60248201526d125b9d985b1a5908185b5bdd5b9d60921b6044820152606401610905565b34333110156115335760405162461bcd60e51b8152602060048201526014602482015273496e73756666696369656e742062616c616e636560601b6044820152606401610905565b60006008828154811061154857611548612261565b60009182526020822060099190910201600301546040516001600160a01b039091169250829034908381818185875af1925050503d80600081146115a8576040519150601f19603f3d011682016040523d82523d6000602084013e6115ad565b606091505b50509050806115ce5760405162461bcd60e51b8152600401610905906122d3565b34600884815481106115e2576115e2612261565b906000526020600020906009020160050160008282546116029190612317565b9250508190555060016008848154811061161e5761161e612261565b9060005260206000209060090201600801600082825461163e9190612317565b90915550506040805160608101825233815242602082019081529181018681526007805460018101825560009190915282517fa66cc928b5edb82af9bd49922954155ab7b0942694bea4ce44661d9a8736c688600390920291820180546001600160a01b0319166001600160a01b0390921691909117815593517fa66cc928b5edb82af9bd49922954155ab7b0942694bea4ce44661d9a8736c68982015590519192917fa66cc928b5edb82af9bd49922954155ab7b0942694bea4ce44661d9a8736c68a909101906117109082612379565b505050336001600160a01b03167fd6a897edbe2f5bae63386e323f717069a8974221d9297299ac544cace2d0f992428660405161174e929190612439565b60405180910390a250506117626001600055565b5050565b60606008805480602002602001604051908101604052809291908181526020016000905b82821015611acc578382906000526020600020906009020160405180610120016040529081600082015481526020016001820180546117c890612277565b80601f01602080910402602001604051908101604052809291908181526020018280546117f490612277565b80156118415780601f1061181657610100808354040283529160200191611841565b820191906000526020600020905b81548152906001019060200180831161182457829003601f168201915b5050505050815260200160028201805461185a90612277565b80601f016020809104026020016040519081016040528092919081815260200182805461188690612277565b80156118d35780601f106118a8576101008083540402835291602001916118d3565b820191906000526020600020905b8154815290600101906020018083116118b657829003601f168201915b505050918352505060038201546001600160a01b0316602082015260048201805460409092019161190390612277565b80601f016020809104026020016040519081016040528092919081815260200182805461192f90612277565b801561197c5780601f106119515761010080835404028352916020019161197c565b820191906000526020600020905b81548152906001019060200180831161195f57829003601f168201915b505050505081526020016005820154815260200160068201805461199f90612277565b80601f01602080910402602001604051908101604052809291908181526020018280546119cb90612277565b8015611a185780601f106119ed57610100808354040283529160200191611a18565b820191906000526020600020905b8154815290600101906020018083116119fb57829003601f168201915b50505050508152602001600782018054611a3190612277565b80601f0160208091040260200160405190810160405280929190818152602001828054611a5d90612277565b8015611aaa5780601f10611a7f57610100808354040283529160200191611aaa565b820191906000526020600020905b815481529060010190602001808311611a8d57829003601f168201915b505050505081526020016008820154815250508152602001906001019061178a565b50505050905090565b60035460405147916000916001600160a01b039091169083908381818185875af1925050503d8060008114611b26576040519150601f19603f3d011682016040523d82523d6000602084013e611b2b565b606091505b50509050806117625760405162461bcd60e51b81526020600482015260146024820152732330b4b632b2103a379039b2b7321032ba3432b960611b6044820152606401610905565b60606007805480602002602001604051908101604052809291908181526020016000905b82821015611acc576000848152602090819020604080516060810182526003860290920180546001600160a01b0316835260018101549383019390935260028301805492939291840191611bea90612277565b80601f0160208091040260200160405190810160405280929190818152602001828054611c1690612277565b8015611c635780601f10611c3857610100808354040283529160200191611c63565b820191906000526020600020905b815481529060010190602001808311611c4657829003601f168201915b50505050508152505081526020019060010190611b97565b60008060088381548110611c9157611c91612261565b60009182526020909120600560099092020101549392505050565b600260005403611cfe5760405162461bcd60e51b815260206004820152601f60248201527f5265656e7472616e637947756172643a207265656e7472616e742063616c6c006044820152606401610905565b6002600055565b600060208284031215611d1757600080fd5b5035919050565b60005b83811015611d39578181015183820152602001611d21565b50506000910152565b60008151808452611d5a816020860160208601611d1e565b601f01601f19169290920160200192915050565b60018060a01b038151168252602081015160208301526000604082015160606040850152611d9f6060850182611d42565b949350505050565b602081526000611dba6020830184611d6e565b9392505050565b60006101208b8352806020840152611ddb8184018c611d42565b90508281036040840152611def818b611d42565b6001600160a01b038a16606085015283810360808501529050611e128189611d42565b90508660a084015282810360c0840152611e2c8187611d42565b905082810360e0840152611e408186611d42565b915050826101008301529a9950505050505050505050565b60018060a01b0384168152826020820152606060408201526000611e7f6060830184611d42565b95945050505050565b634e487b7160e01b600052604160045260246000fd5b600082601f830112611eaf57600080fd5b813567ffffffffffffffff80821115611eca57611eca611e88565b604051601f8301601f19908116603f01168101908282118183101715611ef257611ef2611e88565b81604052838152866020858801011115611f0b57600080fd5b836020870160208301376000602085830101528094505050505092915050565b60008060008060808587031215611f4157600080fd5b843567ffffffffffffffff811115611f5857600080fd5b611f6487828801611e9e565b945050602085013592506040850135915060608501356001600160a01b0381168114611f8f57600080fd5b939692955090935050565b6000610120825184526020830151816020860152611fba82860182611d42565b91505060408301518482036040860152611fd48282611d42565b9150506060830151611ff160608601826001600160a01b03169052565b50608083015184820360808601526120098282611d42565b91505060a083015160a085015260c083015184820360c086015261202d8282611d42565b91505060e083015184820360e08601526120478282611d42565b610100948501519590940194909452509092915050565b602081526000611dba6020830184611f9a565b6000806040838503121561208457600080fd5b50508035926020909101359150565b600080600080600060a086880312156120ab57600080fd5b853567ffffffffffffffff808211156120c357600080fd5b6120cf89838a01611e9e565b965060208801359150808211156120e557600080fd5b6120f189838a01611e9e565b9550604088013591508082111561210757600080fd5b61211389838a01611e9e565b9450606088013591508082111561212957600080fd5b61213589838a01611e9e565b9350608088013591508082111561214b57600080fd5b5061215888828901611e9e565b9150509295509295909350565b6000806040838503121561217857600080fd5b823567ffffffffffffffff81111561218f57600080fd5b61219b85828601611e9e565b95602094909401359450505050565b6000602080830181845280855180835260408601915060408160051b870101925083870160005b828110156121ff57603f198886030184526121ed858351611f9a565b945092850192908501906001016121d1565b5092979650505050505050565b6000602080830181845280855180835260408601915060408160051b870101925083870160005b828110156121ff57603f1988860301845261224f858351611d6e565b94509285019290850190600101612233565b634e487b7160e01b600052603260045260246000fd5b600181811c9082168061228b57607f821691505b6020821081036122ab57634e487b7160e01b600052602260045260246000fd5b50919050565b6000602082840312156122c357600080fd5b81518015158114611dba57600080fd5b6020808252601490820152732330b4b632b2103a379039b2b7321022ba3432b960611b604082015260600190565b634e487b7160e01b600052601160045260246000fd5b8082018082111561113f5761113f612301565b601f82111561237457600081815260208120601f850160051c810160208610156123515750805b601f850160051c820191505b818110156123705782815560010161235d565b5050505b505050565b815167ffffffffffffffff81111561239357612393611e88565b6123a7816123a18454612277565b8461232a565b602080601f8311600181146123dc57600084156123c45750858301515b600019600386901b1c1916600185901b178555612370565b600085815260208120601f198616915b8281101561240b578886015182559484019460019091019084016123ec565b50858210156124295787850151600019600388901b60f8161c191681555b5050505050600190811b01905550565b828152604060208201526000611d9f6040830184611d42565b8181038181111561113f5761113f612301565b60008251612477818460208701611d1e565b9190910192915050565b60006101208b835280602084015261249b8184018c611d42565b6001600160a01b038b166040850152838103606085015290506124be818a611d42565b90508281036080840152611e128189611d4256fea2646970667358221220a51aeee3b2bfd1c9f4e825fb4b40a7c61e1f0b5ef2c22819b93fd834671f765164736f6c63430008120033",
  "linkReferences": {},
  "deployedLinkReferences": {}
}